:020000040000FA
:020000003128A5
:040002000034003492
:080008008B138B10A400030808
:10001000A500A00A0A302006031D1B28A001A10A82
:100020000A3021060319A101210883169A00013024
:100030009B0027208312200883169A0000309B0023
:10004000272083128B1725088300240809001C151C
:1000500055309D00AA309D009C149C182D281C1121
:1000600008008B170B1683168113013086000510CC
:1000700000309B001C141A088312A0000A302002D2
:100080000318A001831601309B001C141A08831268
:10009000A1000A3021020318A101051420085820EC
:1000A00086006820051021085820860068204D2809
:1000B00082077E340C34B6349E34CC34DA34FA34CD
:1000C0000E34FE34DE34FB30A200A20B652808009B
:0C00D0001830A3006320A30B6A2808006E
:02400E00303F41
:00000001FF
