:020000040000FA
:020000003328A3
:040002000034003492
:060008008B10A2090900A3
:100010000B1122180900211C0E281628A00A1030E6
:100020002006031D1E28A00121141E28A003FF3056
:100030002006031D1E280F30A000211020082220BA
:100040008600090082073F3406345B344F3466343F
:100050006D347D3407347F346F3477347C343934F5
:100060005E34793471348316013086008312860140
:10007000A001A101A20107308100063081008B168A
:080080008B1701170B16432832
:02400E00D03FA1
:00000001FF
